:100000000C942B010C9472010C9472010C947201EB
:100010000C9472010C9472010C9472010C94720194
:100020000C9472010C9472010C948D180C945F194D
:100030000C94C5130C9472010C9472010C9472010F
:100040000C9472010C9472010C9472010C94720164
:100050000C9472010C9412140C9472010C947201A1
:100060000C9472010C9472010C9472010C94720144
:100070000C9472010C9472010C9472010C94720134
:100080000C9472010C9472010C9472010C94720124
:100090000C9472010C9472010C9472010C94720114
:1000A0000C9472010C9472010C9472014B094B096F
:1000B0007D097D09CA09FE0AFE0AFE0AE8097D0AD1
:1000C0008E0A8E0AEE0AFE0AFE0AF70A9A0B9A0BAD
:1000D000AC0BAC0BA30BAC0BAC0BAC0B9A0B9A0B95
:1000E000A80BAC0BAC0BA80BCC19F319EB1AF3193A
:1000F000EB1A3F1A621AEB1AB91AC81A0400050063
:1001000006000700080009000A000B000C000D00A3
:100110000E000F0010001100120013001400150053
:1001200004033000000014035300650061002D003B
:100130004D006900630072006F0000001A034A005E
:100140006F007300680020004A006F0068006E00B6
:1001500073006F006E0000000403090409023B00F5
:10016000020100A0FA0904000001030101000921B5
:10017000110100012240000705810308000A09045B
:1001800001000103000000092111010001226D009E
:100190000705820320000A12011001000000086A0E
:1001A0006A4D5301000102030105010980A1018587
:1001B0000319012AB700150126B7009501751081B2
:1001C00000C0050C0901A101850419012AA002152E
:1001D0000126A002950175108100C005010906A144
:1001E000018505050719E029E71500250195087522
:1001F0000181020507190029EF1500250195F07509
:1002000001810205081901290595057501910295DD
:100210000175039101C005010906A101050719E057
:1002200029E71500250195087501810295017508DA
:1002300081010507190029FF150026FF00950675A5
:100240000881000508190129059505750191029598
:100250000175039101C011241FBECFEFDAE0DEBFAC
:10026000CDBF04B603FE27C0809173029091740243
:10027000A0917502B09176028730904BA740B04BA9
:10028000D1F41092730210927402109275021092BF
:10029000760214BE84B7877F84BF0FB6F894A89502
:1002A00080916000886180936000109260000FBEB2
:1002B000E0E0F8E3099511E0A0E0B1E0E2EDF6E35B
:1002C00002C005900D92A238B107D9F722E0A2E84A
:1002D000B1E001C01D92A337B207E1F70E94C71534
:1002E0000C94671B0C940000FB01928180918201A9
:1002F000992321F08F5F8093820108C08150809301
:100300008201811103C088E20E94F40881E008950F
:1003100081E008950C94740108950C948C011F934E
:10032000CF93DF9300D000D01F92CDB7DEB74983C3
:100330005A836B833091A30189819A81311114C052
:10034000662359F0222349F00E94D010182F682FFD
:1003500089819A810E947F1003C00E94A710182FE4
:1003600069817A81812F04C00E94D01069817A81CD
:100370000F900F900F900F900F90DF91CF911F91E2
:100380000C944102FC01262F4081518162817381CE
:1003900084810C948F01CF93DF93EC0160E00E9485
:1003A000C201BE01DF91CF910C948D010E94021217
:1003B000811102C00E94A9120C9451040C944D04A6
:1003C00008950E94880B0E94E0012FEF84E39CE0D7
:1003D000215080409040E1F700C000000C94381498
:1003E0000F931F93CF93DF93EC0161E00E94C20152
:1003F0008C01BE010E948A01882349F1BE01C80117
:100400000E948E05882319F1BE01C8010E94E005F3
:100410008823E9F0BE01C8010E940B078823B9F0C8
:100420008A81882369F001158CE5180731F00F3DAA
:100430001C4531F40E94A9120AC00E94E10107C0C4
:10044000CE01DF91CF911F910F910C94880180E034
:10045000DF91CF911F910F91089508950C942D0273
:1004600081E008950C943002CF93C82F0E942E0291
:100470008C2F0E943202CF91089580E090E0089581
:100480000895972F70E0690F711DFB0192E1899F1C
:10049000E00DF11D1124EE0FFF1FE450FF4F859179
:1004A00094910895880F991FFC01E05EFE4F85919D
:1004B00094910895CF93DF930E9441020E946C03B0
:1004C000EC018115904508F043C0C11580E4D807C0
:1004D00008F0CBC0C03ED10528F5C03CD10508F0DE
:1004E000B3C0C83AD10578F4C53AD10508F0A4C024
:1004F000C130D10509F4ECC008F4E8C0C430D1051E
:1005000008F0E6C0E3C0CF3BD10508F0DFC0C85A11
:10051000D0E0CC0FDD1FC35FDE4F0990D881C02D26
:10052000D464D6C0C11590E2D90750F4C11521E0BA
:10053000D20708F0CDC0C83ED10508F4C9C0C6C076
:10054000C11580E3D80708F086C0CE019F707FC038
:10055000C11595E5D90708F043C0C11524E5D207B8
:1005600008F09AC0C11582E5D80708F5C11591E5D4
:10057000D90708F07DC0CE0174E0969587957A95ED
:10058000E1F783709C2F937021E030E002C0220FCE
:10059000331F9A95E2F73C68382BCF70C695C69505
:1005A00080E2C89FE0011124C22BD32B91C09E0191
:1005B000237033278C2F86958695C115D34508F077
:1005C0005CC0C1E0D0E002C0CC0FDD1F2A95E2F78D
:1005D00020E2829FC0011124C82BD92BDC6878C08F
:1005E000C11529E5D207A0F4C11588E5D80708F0A0
:1005F00058C0C11596E5D90708F068C08C2F0E9435
:1006000000048F71C82FD0E0DC2FCC27D06260C0EF
:10061000C1152AE5D20708F449C0CE0190568115CC
:10062000904208F053C08D2F8F710E940004DD2787
:10063000D0628F71D82B4CC0C55AD0E0C55CDE4F5C
:10064000C881D0E0D06444C0CE01805C91090E9492
:100650005202EC013DC0CE019927D3FF03C0EC014B
:10066000D86C36C0EC01D06C33C0DF70D06A30C0BB
:10067000DC2FCC27C16FD06A2BC0C1E0D0E002C014
:10068000CC0FDD1F2A95E2F720E2829FC0011124E2
:10069000C82BD92BDA681CC0DC2FCC27C46FD06ADA
:1006A00017C0DC2FCC27C06FD06A12C08C2F8F7080
:1006B0000E94000494E0D695C7959A95E1F7CF7013
:1006C000D0E0DC2FCC27D069C82B02C0C0E0D0E03E
:1006D000CE01DF91CF9108958238910569F1B0F490
:1006E0008133910509F46DC048F48932910509F40C
:1006F00063C08A32910509F469C008958533910574
:1007000009F455C089339105B9F00895833E9105E8
:1007100069F138F4803E9105B1F0823E910509F10E
:100720000895863E9105A9F1873E9105B9F1843E71
:10073000910509F064C023C02091640220FD4FC0E0
:1007400021FD4DC008958091640280FD44C08091D8
:10075000650280FF44C08091640284FD42C083EE44
:100760004DC08091640282FF38C0F5CF8091640251
:1007700082FD33C08091650280FD31C0ECCF809155
:10078000650281FF32C08091640284FD2AC087EE39
:1007900035C08091640283FF26C0F5CF809164024A
:1007A00083FD21C08091650281FD1FC0ECCF809147
:1007B000640285FD1CC01DC08091640285FD19C0C6
:1007C00016C08091640286FD16C017C08091640235
:1007D00086FD13C010C089E311C082EE0FC080EE09
:1007E0000DC080E00BC086EE09C084EE07C089E230
:1007F00005C085E303C08AE201C081E390E008956B
:100800009091640292FF0DC0282F2871283019F4AE
:10081000877F846006C0282F2471243011F48B7FD9
:10082000886093FF0DC0282F2871283119F4877E26
:10083000846106C0282F2471243111F48B7E8861D5
:100840002091650220FF0DC0382F3871383019F41F
:10085000877F816006C0382F3171313011F48E7F6F
:10086000886021FF0DC0282F2871283119F4877E58
:10087000816106C0282F2171213111F48E7E88619B
:1008800094FD877E0895E82FF0E0E25BFD4F8081C4
:100890000895089508950C944A040C944B040C9404
:1008A0004A040C944F04CF93DF93AEE3B1E040E5EC
:1008B00051E061E070E08D918F3FA1F0E82FE2956B
:1008C000EF70F0E021A18F70EB0102C0CC0FDD1FB3
:1008D0008A95E2F7CE019C2F9095922391A392A145
:1008E000892B82A34A175B0731F7ECE3F2E0AEE411
:1008F000B2E011921D92D2E0EE34FD07D1F782E111
:100900000E94BF04DF91CF910C94D601CF934EE3A8
:1009100051E0ECE3F2E0C0E0DA012D91AD012F3FB0
:1009200061F1A22FA295AF70B0E090968C9190E00B
:100930002F7002C0959587952A95E2F781709927C7
:1009400021E0822781709081981719F0808381E0DF
:1009500001C080E0C82B319682E0EE34F807E1F662
:100960002C2F42E16EE472E08CE392E00E94C0041E
:100970000E94DE018C2FCF91089580E0E4CF08958E
:10098000FF920F931F93CF93DF938C01F62ED72FF7
:10099000C42F222349F081E0809385010E94F71340
:1009A0009093840180938301809185018823C1F015
:1009B00080918301909184010E940314069780F036
:1009C000EF2DFD2FD8014C2F50E0CD01801B910B56
:1009D000841795071CF48D918193F7CF10928501B0
:1009E000DF91CF911F910F91FF900895AF92BF9229
:1009F000CF92DF92EF92FF920F931F93CF93DF93EB
:100A00007C015B01C42FD22FFC0182818823F9F085
:100A1000409388010E94F713909387018093860189
:100A200080E28C0F883008F06EC0C77081E001C092
:100A3000880FCA95EAF7DF91CF911F910F91FF9030
:100A4000EF90DF90CF90BF90AF900C94070980910A
:100A50008801481335C080918601909187010E94DA
:100A600003146C01B701C5010E94410EC816D906D6
:100A700038F510E21D0FCD17B9F080E28C0F8830E9
:100A800040F4C77081E001C0880FCA95EAF70E9460
:100A90000E09183058F581E09D2F977001C0880F1E
:100AA0009A95EAF70E940709802F0E94F4081830EF
:100AB00050F5D77081E001C0880FDA95EAF70AC0D7
:100AC00080E28C0F8830F8F4C77081E001C0880F95
:100AD000CA95EAF7DF91CF911F910F91FF90EF90A8
:100AE000DF90CF90BF90AF900C940E09802FDF91D4
:100AF000CF911F910F91FF90EF90DF90CF90BF901B
:100B0000AF900C94F408DF91CF911F910F91FF905B
:100B1000EF90DF90CF90BF90AF9008950F939C011E
:100B2000CB01243F4CE5340731F188F4293DFCE545
:100B30003F07D9F02A3D4CE5340779F1283D3C4583
:100B4000A9F506E221EE41EE68ED7CE52BC0263FDB
:100B5000FCE53F07E1F0A8F0273F3C4539F507E207
:100B600025EE46EE67EF7CE51DC007E225EE45EE7B
:100B700069ED7CE517C006E221EE40EE64EF7CE50E
:100B800011C007E225EE44EE65EF7CE50BC006E2FE
:100B900021EE42EE66EF7CE505C008E221E045EE7D
:100BA0006AED7CE50E94F60480E008C0FC018281C9
:100BB000882319F01092880101C081E00F910895F7
:100BC000CF93DF93EC01FB018281882309F41FC1DD
:100BD000C230FCE5DF0708F41BC1C6319CE5D9072C
:100BE00038F09E012B5F3C452930310508F010C1DB
:100BF0000E9415129093650280936402C031ECE567
:100C0000DE0709F4C3C008F041C0C8308CE5D8073E
:100C100009F49AC0F0F4C430ECE5DE0709F487C0AB
:100C200068F4C2308CE5D80709F477C0C330DC45DE
:100C300009F0E3C080916402826076C0C630ECE5C2
:100C4000DE0709F46EC008F07BC080916402886002
:100C50006BC0CC308CE5D80709F485C068F4CA3085
:100C6000ECE5DE0709F474C008F079C00E94880B37
:100C700080916402806858C0CE308CE5D80709F4B2
:100C800076C008F07FC0809164028BC0CC3FECE559
:100C9000DE0709F44FC018F5C3318CE5D80709F415
:100CA0007DC078F4C131ECE5DE0709F473C0C231D0
:100CB000DC4509F0A2C00E94880B809164028F7706
:100CC00033C0C5318CE5D80709F472C008F486C07A
:100CD000CB3FDC4509F091C0809165023EC0C11553
:100CE000FDE5DF0709F45FC058F4CE3F9CE5D90766
:100CF00009F444C008F43FC08091650282602DC0B1
:100D0000C230FDE5DF0709F475C008F45DC0C330EB
:100D1000DD4509F072C080E06EC0809164028160A0
:100D200003C08091640280618093640266C08091F8
:100D3000640211C0809165028260809365025DC08B
:100D4000809164028062F0CF809164028064ECCF75
:100D50008091640288608460E7CF8160EECF8091EB
:100D600064028E7FE1CF809164028D7FDDCF809120
:100D70006402877FD9CF8091650218C08091650297
:100D80008D7FDBCF809164028F7ECECF8091640215
:100D90008F7DCACF809164028F7BC6CF8091640221
:100DA000877F8B7FC1CF809165028D7F8E7FC5CF7E
:100DB0008091640282FB222720F991E0922790FB28
:100DC00082F990FB83F9B0CF80916502982F9095BE
:100DD00091708E7F892B90FB81F9AFCF0E94880B99
:100DE0008091640287FB222720F991E0922790FBF3
:100DF00087F99ACF81E00E94AB12809164029091B2
:100E000065020E9426120E94880B80E001C081E0EA
:100E1000DF91CF910895CF93DF9386319C4541F5C3
:100E2000EB010E945111982F8A812091000130918D
:100E30000101882379F09A7A81E009F480E08093B7
:100E40008901911102C069E201C065E3C9010E94F4
:100E500046130AC080918901811102C069E201C074
:100E600065E3C9010E9451130E949F1180E001C0F7
:100E700081E0DF91CF91089590938F0180938E014F
:100E80000895E0918E01F0918F01309721F001904B
:100E9000F081E02D099480E00895E0918E01F091B9
:100EA0008F01309799F020910C01222359F0209165
:100EB000640227FF07C0DC012C9111962C93119737
:100EC00025E02C930280F381E02D09940895209170
:100ED0008C0130918D012817390771F090938D01A5
:100EE00080938C01E0918E01F0918F01309721F079
:100EF0000680F781E02D0994089520918A013091B0
:100F00008B012817390771F090938B0180938A0128
:100F1000E0918E01F0918F01309721F00084F185EE
:100F2000E02D0994089585B7806885BF85B78068EE
:100F300085BF089581E008950C949A0708950C9454
:100F40009E070C949E070C94A1070C949E070C948A
:100F5000A5070C949E070E9493070E94A9070C9472
:100F6000A7070E94EE130E9453040E9449140C9498
:100F7000A307BF92CF92DF92EF92FF920F931F933E
:100F8000CF93DF93CDB7DEB72A970FB6F894DEBFC5
:100F90000FBECDBF0E949F070E949E070E9486043D
:100FA0000E949C07811111C08FEF89838A831B8265
:100FB0000E94F7138160782F9D838C8349815A8129
:100FC0006B818D810E94460836C081E9C82E81E080
:100FD000D82E00E010E0B02E802F0E944304F82E9F
:100FE000F601E1906F01E82601F18091180281FD80
:100FF0000E944904E0FE19C01E82BF828F2D8170BD
:1010000088870E94F7138160782F9A8789874E819D
:101010005F8168858A850E944608F801EF56FE4F79
:10102000908181E08927808306C00F5F1F4F0231C6
:10103000110589F6B9CF0E94410790919001891757
:10104000A9F00E944107809390012A960FB6F89468
:10105000DEBF0FBECDBFDF91CF911F910F91FF90EB
:10106000EF90DF90CF90BF900C9434022A960FB689
:10107000F894DEBF0FBECDBFDF91CF911F910F91CE
:10108000FF90EF90DF90CF90BF900895CF93DF93C4
:10109000CDB7DEB72B970FB6F894DEBF0FBECDBF2E
:1010A0004F83588769877A878B87DE01119686E0A0
:1010B000FD0111928A95E9F785E0FE0137960190CE
:1010C0000D928A95E1F749815A816B817C818D81EE
:1010D0009E810E94440E2B960FB6F894DEBF0FBE81
:1010E000CDBFDF91CF910895FC01808191810E9455
:1010F00012110895CF93882309F448C0C82F8CEFAC
:101100008C0F813AD0F46C2F8091000190910101F5
:101110000E94C612882349F06C2F809100019091A3
:1011200001010E9451130E949F116C2F80910001B8
:10113000909101010E9446130CC080E28C0F883010
:1011400058F4C77081E001C0880FCA95EAF70E9481
:101150005411CF910C949F11EBE5EC0FE33040F468
:10116000F0E0E258FE4F808190E0CF910C94670749
:10117000C85AC73158F4EC2FF0E0EE0FFF1FE05BC8
:10118000FE4F80819181CF910C947D07CF9108957E
:10119000882349F1682F8CEF860F813A38F48091CB
:1011A0000001909101010E9451130CC080E2860F52
:1011B000883050F4677081E001C0880F6A95EAF7C3
:1011C0000E945A110C949F118BE5860F833020F4F6
:1011D00080E090E00C946707685A673120F480E063
:1011E00090E00C947D070895CF93C82F0E947A0851
:1011F000C93349F42FEF87EE93E0215080409040AF
:10120000E1F700C000008C2FCF910C94C808882310
:1012100021F00E9454110C949F110895882321F00D
:101220000E945A110C949F110895CF92DF92EF9271
:10123000FF920F931F93CF93DF937C01062FC72F4D
:10124000FC01158112951F70D281D1110E9471117C
:101250000E944A11882399F0DD2389F08C2F807F2A
:10126000803421F080E2800F883048F082E00E94D4
:10127000E9110E944A1191E0D82ED92601C0D12C43
:10128000CC2EC2948FE0C8228C2D90E0FC01EA5A4B
:10129000FF4F0C941F1B8C2F807FCF70882311F081
:1012A000C295C07FDD2399F0CC2309F482C180E28E
:1012B000800F883010F0011104C08C2F0E9454114F
:1012C00003C08C2F0E9464110E949F1172C1802F55
:1012D0000E94C808CC2309F491C180E2800F8830B5
:1012E00010F0011104C08C2F0E945A1103C08C2FE2
:1012F0000E946A110E949F1181C18C2F807FCF7044
:10130000803211F0C295C07F002319F00130C9F07E
:1013100022C0DD2371F0112341F0113031F40E941D
:1013200084118C2B0E948C1169C10E9484118C2B1A
:101330001DC0112319F0113009F460C10E949511EC
:1013400025C0DD2321F0163008F058C10EC015303D
:1013500008F054C11BC0DD2361F0112331F0F70107
:10136000858180FF26C18F7085838C2F0E9407099D
:1013700045C1112359F0093309F02CC1FFEF27EEC5
:1013800083E0F15020408040E1F722C18C2F0E9481
:101390000E0934C18C2F86958695837019F08130A3
:1013A00061F02CC1DD2321F0802F9C2F937002C0AF
:1013B00080E090E00E94670729C1DD2321F0802FA3
:1013C0009C2F937002C080E090E00E947D071EC1B8
:1013D0008C2F837009F045C0D11114C1402F429564
:1013E00046954770440F440F602F6F70862F90E032
:1013F000A0E0B0E0042E04C0880F991FAA1FBB1FF5
:101400000A94D2F704FF10C00FE010E020E030E0B3
:1014100004C0000F111F221F331F4A95D2F70095F9
:1014200010952095309503C000E010E09801C69516
:10143000C695C370BC01CD01602B712B822B932B01
:10144000C23049F058F4C13019F00E94950FDAC04B
:101450000E94830FD7C00E94A70FD4C00E94810FA3
:10146000D1C0DD2319F08C2F817001C086958823AF
:1014700009F4C8C0402F429546954770440F440F69
:10148000602F6F70862F90E0A0E0B0E0042E04C0C3
:10149000880F991FAA1FBB1F0A94D2F704FF10C020
:1014A0000FE010E020E030E004C0000F111F221F09
:1014B000331F4A95D2F7009510952095309503C0BB
:1014C00000E010E09801C695C695C370BC01CD013F
:1014D000602B712B822B932BC23049F058F4C13012
:1014E00019F00E945A108EC00E9448108BC00E94B2
:1014F0006C1088C00E94BB0F85C0CF70DD2339F00F
:101500008C2F0E94E10F802F0E9407097BC0802F43
:101510000E940E098C2F0E94021074C0023F01F13C
:1015200028F4003F41F0013FA1F03FC0033FF9F034
:10153000043F39F13AC0DD2341F0153008F05EC0B8
:101540008C2F8F710E94271059C0163008F056C09A
:10155000F7CFDD2339F08C2F8F710E94E10F4EC041
:10156000DD23C9F38C2F8F710E94021047C0DD2349
:1015700029F08C2F8F710E94CC0F40C00E94C70FA2
:101580003DC0DD2349F0CF718C2F0E94E10F63E055
:101590008C2F0E94D41132C081E00E94E9111230D8
:1015A00068F182E00E94E91129C0DD2331F01123A6
:1015B00091F2802F0E947A0821C0112399F20933F9
:1015C00049F49FEFE7EEF3E09150E040F040E1F79F
:1015D00000C00000802F0E94C80810C04C2F4F7020
:1015E000602FC7010E943D020E94F20E0FC04C2FD7
:1015F0004F70602FC7010E94400208C088EF8C0D19
:10160000843020F40E9441070E943402DD20C9F09A
:101610000E94461180FD15C0F70112820E94401100
:101620000E94E10FC7010E94420B0E944011DF910E
:10163000CF911F910F91FF90EF90DF90CF900C947E
:101640000210DF91CF911F910F91FF90EF90DF90EB
:10165000CF9008950F931F93CF93DF93EC01688190
:1016600079818A810E941D118C010E947E100E9446
:101670006F0FB801CE010E941509DF91CF911F9124
:101680000F910895CF93DF93EC01988189812B818D
:101690003C81232B31F08F3F31F481E09F3F19F4DF
:1016A00003C081E001C080E080FD19C0CE010E942E
:1016B000F00181110CC00E944A11882381F08A81B7
:1016C000882369F082E0DF91CF910C94E911CE017B
:1016D0000E942A0BCE01DF91CF910C94CB01DF91B8
:1016E000CF9108950E9471110E9481110E949F1153
:1016F00080E090E00E94670780E090E00C947D0716
:1017000080910001909101010E945C130C94720B76
:101710000E9461110C94800BE92FE295EF704E2F1F
:1017200050E0FA013297EE30F105B0F4EA59FF4F7C
:101730000C941F1B803F91F018F4883E68F40EC093
:10174000843F51F40BC0883E48F0813F29F406C025
:1017500093FB882780F9089580E0089581E008953B
:101760000E9412110E948C0B0895CF93DF9300D03A
:1017700000D01F92CDB7DEB70F900F900F900F9053
:101780000F90DF91CF910895CF93DF9300D000D0D9
:1017900000D0CDB7DEB726960FB6F894DEBF0FBEE9
:1017A000CDBFDF91CF9108951F93CF93DF93C09169
:1017B000A40116E08091A501C81799F0D0E01C9F04
:1017C000F0011D9FF00D1124EA55FE4F408151811B
:1017D00062817381848195810E94C40B2196C770B8
:1017E000E9CFDF91CF911F9108954091D60150919B
:1017F000D7016091D8017091D9018091DA0190915F
:10180000DB010C94C40B0F931F93CF93DF93809154
:10181000DB0182958F7009F05DC08091D80188232B
:1018200009F458C08091A4011091A5016091D601DE
:101830007091D701C091D901D091DA0191E06F3F49
:1018400009F090E0292F06E0811709F443C02097A2
:1018500021F07F3F21F030E003C031E001C0322FA2
:1018600090E030FD34C0089FF001099FF00D112475
:10187000DF01AA55BE4F11963C911197371327C02F
:101880003C91361324C012963C91129731111FC01F
:1018900013964D915C9114974C1B5D0B483C510580
:1018A000B0F48091DB018F7080618093DB01E5559E
:1018B000FE4F80818F708061808386ED91E00E9471
:1018C000420BDF91CF911F910F910C94D40B019695
:1018D0008770BACFDF91CF911F910F9108959F929A
:1018E000AF92BF92CF92DF92EF92FF920F931F932E
:1018F000CF93DF93CDB7DEB761970FB6F894DEBF15
:101900000FBECDBF8C0185E0F801DE011D96019070
:101910000D928A95E1F7F80140815181E280909122
:10192000D6016091D7012091D9013091DA012115BA
:10193000310531F06F3F31F481E09F3F19F403C06E
:1019400081E001C080E0F82FF1709F2E80FD46C13C
:10195000F801A380B48086EDC82E81E0D82EF090E7
:10196000D801F501E21BF30BFF2009F4DFC08091E1
:10197000DB01E83CF10508F09BC0282F207F09F02F
:1019800052C0561313C0491311C0FE2CE1100EC0F3
:101990008F7080618093DB010E94F50BC6010E946D
:1019A000420B8091DB01F801858358C1AB2831F0EF
:1019B0005F3F31F481E04F3F19F403C081E001C083
:1019C00080E080FD03C081E08E2502C080E090E0D1
:1019D000F82FF170FF2E80FF1CC08091A401209190
:1019E000A50136E0821709F417C190E0389FF00195
:1019F000399FF00D1124EA55FE4F6181561306C040
:101A00006081461303C06281E61203C001968770AD
:101A1000E9CFFE2CEE2009F421C18091DB01816029
:101A20008093DB015AC0561306C0491304C0E1106D
:101A300002C0F8019FC04D875E878D859E850E94FC
:101A4000B00B882379F1EE2069F12091DB01822F20
:101A500082958F7090E0029774F08091D6019091FA
:101A6000D70198878F831986BB86AA862C87CE01DB
:101A700007960E94420B86E0F801A6EDB1E00190C6
:101A80000D928A95E1F70E94030C0E94F50B0DC0A0
:101A9000561729F14D875E878D859E850E94B00B74
:101AA00081112CC0C8010E94420BFF24F394D6C0C0
:101AB000282F207F69F77A2DB98AA88A6E2D898907
:101AC0000E94B50B86ED91E00E94420B86E0F60184
:101AD00011928A95E9F70E94F50BF12CBFC04913CA
:101AE000D9CFE110D7CFF8018583C8010E94420BFE
:101AF00086E0F60111928A95E9F7B0C0EE2091F2E6
:101B00002091DB01822F82958F7090E002970CF478
:101B1000B2CF8091D6019091D7019A8389831B829D
:101B2000BD82AC822E83CE010196A3CFE83CF105A5
:101B300008F047C0FE2CEE2009F4B4CF561330C095
:101B400049132EC02091DB0120FD21C0822F8295F8
:101B50008F70482F50E041155105C9F0F8012583D9
:101B60004F30510541F08F5F982F9295907F822FD3
:101B70008F70892B8583C8010E94420B86E0F80193
:101B8000A6EDB1E001900D928A95E1F742C086E0A2
:101B9000F801A6EDB1E001900D928A95E1F75EC0E3
:101BA0004D875E878D859E850E94B00B811163CF26
:101BB0008091DB0181608093DB01C8010E94420BB0
:101BC0004DC07A2DB98AA88A6E2D89890E94B50BDD
:101BD00086E0F60111928A95E9F71BC0EE2009F420
:101BE00061CF4D875E878D859E850E94B00BF82E54
:101BF000882309F457CF86E0F801A6EDB1E0019003
:101C00000D928A95E1F786ED91E00E9474080E949A
:101C1000030C0E94F50B22C04D875E878D859E8543
:101C20000E941211292F22952F70223028F49F70C4
:101C300039F0811105C00BC0243028F49F7049F49D
:101C4000805E883020F0C8010E94420B9F2CF92C46
:101C500005C0F8019581907F99F7F9CF8F2D619696
:101C60000FB6F894DEBF0FBECDBFDF91CF911F91AD
:101C70000F91FF90EF90DF90CF90BF90AF909F902B
:101C8000089588EC90E008951F93CF93DF93CDB72C
:101C9000DEB72C970FB6F894DEBF0FBECDBF4F83D3
:101CA000588769877A878B879C87CE0107960E9421
:101CB0006F0C8823D1F09F8188852A853B85232B53
:101CC00031F08F3F31F481E09F3F19F403C081E090
:101CD00001C080E080FD47C04F81588569857A85C5
:101CE0008B859C850E94C40B3EC086E0FE01379622
:101CF000DE01119601900D928A95E1F7FF81E8854A
:101D00006A857B856115710531F0EF3F31F481E023
:101D1000FF3F19F403C081E001C080E080FD23C0D3
:101D20002091A50130E0C901019687709927409163
:101D3000A40150E084179507F1F1F983EA837D83CC
:101D40006C8396E0929FD001939FB00D1124AA5509
:101D5000BE4FFE01319601900D929A95E1F7809366
:101D6000A5010E94D40B16E08091A4019091A501D9
:101D7000891771F1189FC00111248A559E4F0E9446
:101D80006F0C882329F1E091A4011E9FF00111241A
:101D9000EA55FE4F40815181628173818481958132
:101DA0000E94C40B8091A40190E00196877099274E
:101DB0008093A401D9CF0E94880B1092A5011092A4
:101DC000A401E6EDF1E086E0DF011D928A95E9F7D6
:101DD0002C960FB6F894DEBF0FBECDBFDF91CF912A
:101DE0001F910895EF92FF920F931F93CF93DF936C
:101DF0008C01892B09F46CC0F12CEE24E394E801EA
:101E00002196F8018491843740F4843008F051C061
:101E1000813081F0823019F15BC0853709F444C00C
:101E2000A8F19CE7980F903708F052C08F770E9476
:101E3000C80841C00E5F1F4FFE01849190E2980FC9
:101E4000983050F48770FE2D01C0FF0F8A95EAF795
:101E50008F2F0E94741114C00E947A082DC00E5F4B
:101E60001F4FFE01849190E2980F983060F48770C4
:101E7000FE2D01C0FF0F8A95EAF78F2F0E947A117D
:101E80000E949F1119C00E94C80816C00E5F1F4F04
:101E9000FE01C491CC2381F08FE99FE00197F1F717
:101EA00000C00000C150F6CF0E5F1F4FFE01F4903E
:101EB00003C00E947A088E018F2D882309F49FCFDA
:101EC000EFE9FFE03197F1F700C000008150F5CF56
:101ED000DF91CF911F910F91FF90EF90089508959A
:101EE00008950C94700F0C94710F0E94730F6093FF
:101EF000EF017093F0018093F1019093F2010C9443
:101F0000720B0C94750F0F931F930091EF011091BA
:101F1000F0012091F1013091F201602B712B822BA5
:101F2000932B1F910F910C94750F0F931F9300919A
:101F3000EF011091F0012091F1013091F201602345
:101F40007123822393231F910F910C94750F0F938C
:101F50001F930091EF011091F0012091F101309158
:101F6000F20160277127822793271F910F910C940C
:101F7000750F0C94700F0E94B90F6093EB01709372
:101F8000EC018093ED019093EE010C94720B60E0F4
:101F900070E0CB010C94BB0F0F931F9341E050E016
:101FA00060E070E08A019B0104C0000F111F221F36
:101FB000331F8A95D2F7C901B8011F910F910C9474
:101FC000BB0F0F931F9341E050E060E070E004C04E
:101FD000440F551F661F771F8A95D2F78091EB013A
:101FE0009091EC01A091ED01B091EE018A019B016D
:101FF000082B192B2A2B3B2BC901B8011F910F91DC
:102000000C94BB0F0F931F9341E050E060E070E031
:1020100004C0440F551F661F771F8A95D2F740955D
:102020005095609570958091EB019091EC01A09195
:10203000ED01B091EE018A019B01082319232A23A7
:102040003B23C901B8011F910F910C94BB0F0F9353
:102050001F9341E050E060E070E004C0440F551F62
:10206000661F771F8A95D2F78091EB019091EC0162
:10207000A091ED01B091EE018A019B01082719277B
:102080002A273B27C901B8011F910F910C94BB0F60
:102090000F931F930091EB011091EC012091ED0142
:1020A0003091EE01602B712B822B932B1F910F919E
:1020B0000C94BB0F0F931F930091EB011091EC0157
:1020C0002091ED013091EE0160237123822393234F
:1020D0001F910F910C94BB0F0F931F930091EB0175
:1020E0001091EC012091ED013091EE0160277127F4
:1020F000822793271F910F910C94BB0F0895890F8E
:10210000E82FE695E695E695877051E001C0550FFA
:102110008A95EAF785E0E89FF0011124E452FE4F2A
:1021200020E030E070E04081CB01022E02C09695A5
:1021300087950A94E2F78170819584278523842707
:1021400081932F5F3F4F2530310569F70895890F3F
:10215000682F669566956695982F977085E0689FBD
:10216000B001112440E050E080E0FB01E40FF51FD6
:10217000E452FE4F208130E0092E02C036952795AB
:102180000A94E2F721703327042E01C0220F0A942B
:10219000EAF7822B4F5F5F4F4530510531F70895C5
:1021A000BF92CF92DF92EF92FF920F931F93CF9344
:1021B000DF938C01C090EB01D090EC01E090ED0139
:1021C000F090EE018091EF019091F001A091F1016A
:1021D000B091F201C82AD92AEA2AFB2ACFE1D0E03D
:1021E000D701C6010C2E04C0B695A7959795879583
:1021F0000A94D2F780FD04C0219790F7B12C07C054
:10220000BC2EB8018C2F0E945A020197A9F38B2D86
:10221000DF91CF911F910F91FF90EF90DF90CF90C2
:10222000BF900895CF93DF93EC010E94D010BE01C0
:102230000E945A02DF91CF9108951F93CF93DF93AD
:10224000EB019091A301992321F0CB010E9412117F
:1022500013C0882349F0CB010E94D010182F682F9B
:10226000CE010E947F1004C0CB010E94A710182F3E
:10227000BE01812F0E945A02DF91CF911F910895D4
:102280008091F30185958595859508958091F30159
:10229000877008959091F301977081E009F480E0D0
:1022A000089580911702089590911702892B8093C9
:1022B0001702089580959091170289238093170241
:1022C000089510921702089590911602892B809319
:1022D0001602089580959091160289238093160224
:1022E000089510921602089590911502892B8093FB
:1022F0001502089580959091150289238093150207
:1023000008951092150208958091F401089508959A
:102310000C9487110C9488119091F401981721F076
:102320008093F4010C948A1108958091F40188231C
:1023300029F01092F40180E00C948A110895E09144
:102340000001F0910101809117028083E09100016A
:10235000F0910101908180911602892B8083E09198
:102360000001F0910101908180911502892B8083F9
:102370008091F401882381F0E0910001F091010146
:102380009081892B808380910001909101010E94AE
:10239000B01281110E94951180910001909101016C
:1023A0000C944D070C94871198E0899F900111249B
:1023B000262B2093F3010E94E10F8091F301859574
:1023C000859585950C94D2111092F30180E00C94C0
:1023D000D2112091F301809582238093F301982FED
:1023E000977079F430E0482F082E000C550B241715
:1023F000350739F08595859585950E9402100C94D6
:10240000E411089580E090E00E942D1B21E08C3EB5
:102410009E4F09F020E0822F089582E090E00C9416
:10242000251B83E090E00C94251BCF9384E090E083
:102430000E94251BC82F81E290E00E94251B2C2FB3
:1024400030E0A901582BCA01CF910895CF93C92F2D
:10245000682F84E090E00E94331B6C2F81E290E0B3
:10246000CF910C94331BAB01BC018FE090E00C9436
:10247000451BAB01BC0183E190E00C94451B60E07F
:1024800070E0CB010C94391260E070E0CB010E9447
:1024900033120C943F126CEE7EEF80E090E00E94CD
:1024A000511B60E082E090E00E94331B60E083E01B
:1024B00090E00E94331B1092EF011092F0011092F5
:1024C000F1011092F20160E084E090E00E94331B81
:1024D00060E081E290E00E94331B60E085E090E0E4
:1024E0000E94331B60E086E090E00E94331B6FEF98
:1024F00087E090E00E94331B40E050E0BA0188E0A2
:1025000090E00E94451B60E08DE090E00E94331B4C
:1025100040E050E0BA0188E190E00E94451B60E095
:1025200087E190E00E94331B40E050E0BA018CE16B
:1025300090E00E94451B60E080E290E00E94331B27
:1025400040E050E0BA0188E190E00E94451B0C9405
:1025500044120C944B12682F8EE090E00C94331BC5
:10256000FC01329680910C01882331F08091640245
:1025700087FF02C09EE101C096E080E0915028F004
:1025800021912223D9F38F5FF9CF0895662351F16A
:1025900020910C012223E9F02091640227FF19C049
:1025A000462F4695469546954E31E0F4677021E0FA
:1025B00030E002C0220F331F6A95E2F7FC01E40FFE
:1025C000F11D828190E02823392381E0232B69F4D7
:1025D00009C0FC01329608962191621729F0E8178C
:1025E000F907D1F780E0089581E008959C01FC018E
:1025F00032969FEF80E04191461789F09F3F19F492
:10260000411101C0982F8F5F8630A9F79F3F39F0A5
:10261000F901E90FF11D97FDFA9562830895089578
:102620009C012A5F3F4FFC014281461301C0128288
:10263000019682179307B9F70895262F26952695B8
:1026400026952E3168F4FC01E20FF11D677021E040
:1026500030E001C0220F6A95EAF78281282B22839D
:102660000895262F2695269526952E3170F4FC0187
:10267000E20FF11D677021E030E001C0220F6A9582
:10268000EAF72095828128232283089520910C0166
:10269000222329F02091640227FD0C941D130C9431
:1026A000F61220910C01222329F02091640227FDCB
:1026B0000C9431130C94101320910C01FC013296F0
:1026C000222331F08091640287FF02C08EE101C0B5
:1026D00086E0DF011D928A95E9F7089508950C942C
:1026E0006E130C946E13CF930E9471130E94860494
:1026F0000E946F13C0E08C2F0E944304811104C01C
:10270000CF5FC231C1F701C081E0CF9108950C9431
:102710006E130C9487130E94891380916A0284308F
:1027200049F11092190220E488E190E00FB6F89484
:10273000A895809360000FBE2093600080E00E9407
:1027400034020E94891383B7817F846083BF83B77B
:10275000816083BF7894889583B78E7F83BF0FB6DF
:10276000F894A89580916000886180936000109231
:1027700060000FBE08950C946E130E94880B0E9497
:1027800041070E9434020C94BB131F920F920FB6A4
:102790000F9211248F939F93AF93BF93809119024F
:1027A000811113C08091600290916102A091620238
:1027B000B09163024196A11DB11D80936002909378
:1027C0006102A0936202B0936302BF91AF919F91A7
:1027D0008F910F900FBE0F901F90189582E084BDCF
:1027E00093E095BD9AEF97BD80936E0008952FB743
:1027F000F8948091600290916102A0916202B09180
:1028000063022FBF08959C014FB7F8948091600236
:1028100090916102A0916202B09163024FBF821B4E
:10282000930B089578941F920F920FB60F92112474
:102830008F939F93AF93BF938091600290916102B9
:10284000A0916202B09163020196A11DB11D809317
:10285000600290936102A0936202B0936302BF9101
:10286000AF919F918F910F900FBE0F901F90189571
:1028700087E797E790930108809300089AE088E142
:102880000FB6F894A895809360000FBE90936000F7
:10289000FFCF0E940212811102C00E94A9120E9461
:1028A0000D12809318020E94151290936502809376
:1028B00064020E941112682F70E080E090E00E9494
:1028C000810F6091EB017091EC018091ED0190918D
:1028D000EE010C94B90F80913A0208950895CF93B8
:1028E000DF9300D01F92CDB7DEB790916A0294308B
:1028F00019F589837B836A8382E08093E9008FEFF7
:102900009091E800815095FD06C095ED9A95F1F7FC
:1029100000008111F5CF8091E80085FF0DC040E0F7
:1029200050E063E070E0CE0101960E948116809134
:10293000E8008E778093E8000F900F900F90DF9162
:10294000CF910895BC0184E00C946F14BC0183E026
:102950000C946F14CF93DF9320910C01222339F054
:102960002091640227FF03C060E222E002C068E019
:1029700021E02093E9002FEF3091E800215035FD50
:1029800006C035ED3A95F1F700002111F5CF209101
:10299000E80025FF1DC0EC0180910C01811105C0EC
:1029A00040E050E068E070E003C070E040E050E0DC
:1029B000CE010E9481168091E8008E778093E80016
:1029C00080E2FE01AAE1B2E001900D928A95E1F762
:1029D000DF91CF91089580916902811109C00E9411
:1029E00012180E946F188091E20084608093E200C8
:1029F0000895109269020895089508950C94BD13E6
:102A000042E061EC81E00E948B1742E261EC82E0DF
:102A10000C948B1780916C02833009F460C030F401
:102A2000813071F0823009F499C008958A3009F438
:102A300085C08B3009F46BC0893009F0A7C020C075
:102A400080916B02813A09F0A1C08091E800877FF4
:102A50008093E80080916F0290917002892B21F49D
:102A600060E28AE192E003C060E080E090E070E024
:102A70000E94CC168091E8008B778093E80008953F
:102A800080916B02813209F081C080916F02909138
:102A90007002029708F07AC08091E800877F8093E7
:102AA000E8008091E80082FD05C080916A028111F2
:102AB000F8CF6CC02091F3008091F20090E0922B4F
:102AC000029729F48091F1008B7F813021F480916D
:102AD000F10080933A028091E8008B7753C0809197
:102AE0006B02813A09F052C080916F02909170029E
:102AF000892B09F04BC08091E800877F8093E80024
:102B00008091E80080FFFCCF80910C0136C080915D
:102B10006B028132D9F580916F0290917002892BFE
:102B2000A9F58091E800877F8093E8000E94C01794
:102B300080916D0280930C010C94880B80916B0244
:102B4000813221F58091E800877F8093E8000E9420
:102B5000C01780916E0280933B02089580916B02B2
:102B6000813AA1F48091E800877F8093E80080910A
:102B7000E80080FFFCCF80913B028093F1008091C0
:102B8000E8008E778093E8000C94C017089584B70E
:102B9000877F84BF0FB6F894A89580916000886104
:102BA00080936000109260000FBE90E080E80FB646
:102BB000F89480936100909361000FBE0E94AB0770
:102BC0000E9412180E946F188091E2008460809326
:102BD000E20078940E94041B0E94B10782E091E019
:102BE0000E943C0780916A02853069F40E948B1331
:102BF000809168028823B1F30E947313882391F3B4
:102C00000E946B16EFCF0E94B9070E949F070E9497
:102C10009E07E8CF0C940C16292F3327233031055B
:102C2000C9F060F42130310581F02230310509F01E
:102C30004AC08BE390E02CE531E049C021323105F8
:102C400011F12232310579F13EC082E190E027E9AD
:102C500031E03DC099278130910561F040F082302C
:102C6000910559F0039779F5E0E2F1E008C0E8E555
:102C7000F1E005C0ECE3F1E002C0E6E2F1E08491AE
:102C800090E09F0124C06115710541F0613071052C
:102C9000D1F489E090E027E831E019C089E090E0C4
:102CA0002EE631E014C06115710541F06130710507
:102CB00051F48DE690E029EA31E009C080E490E02B
:102CC00026E132E004C080E090E020E030E0FA014C
:102CD00031832083089580E189BD82E189BD09B4F3
:102CE00000FEFDCF8091D8008F7D8093D800809129
:102CF000E00082608093E0008091E00081FDFCCFE5
:102D00000895CF92DF92EF92FF920F931F93CF938C
:102D1000DF93EC018B017A010E94DF17811133C030
:102D2000E114F10439F0F70180819181081B190B3E
:102D3000C80FD91FC12CD12C0115110519F1809193
:102D4000E80085FD16C08091E8008E778093E8004A
:102D5000E114F10449F0F70180819181C80ED91E78
:102D6000D182C08285E00FC00E94DF17882321F343
:102D70000AC089918093F10001501109FFEFCF1A29
:102D8000DF0ADACF80E0DF91CF911F910F91FF90A2
:102D9000EF90DF90CF9008952091710230917202F0
:102DA0002617370748F06115710539F42091E800BE
:102DB0002E772093E80001C0B901FC0120E06115E5
:102DC000710579F180916A028823F1F18530F1F182
:102DD0008091E80083FD3CC08091E80082FD2EC018
:102DE0008091E80080FFEBCF2091F3008091F2000A
:102DF00090E0922B6115710551F08830910538F4FF
:102E000021912093F100615071090196F3CF21E0E7
:102E1000089709F020E08091E8008E778093E80021
:102E2000CECF2111CFCF0AC080916A02882361F0F2
:102E3000853061F08091E80083FD0AC08091E80050
:102E400082FFF2CF80E0089582E0089583E0089544
:102E500081E00895209171023091720226173707A0
:102E600048F06115710539F42091E8002E77209320
:102E7000E80001C0B901FC0120E06115710591F184
:102E800080916A02882309F440C0853009F43FC06C
:102E90008091E80083FD3DC08091E80082FD2FC055
:102EA0008091E80080FFE9CF2091F3008091F2004B
:102EB00090E0922B6115710559F08830910540F42E
:102EC00024912093F1003196615071090196F2CF5F
:102ED00021E0089709F020E08091E8008E77809348
:102EE000E800CBCF2111CCCF0AC080916A028823A1
:102EF00061F0853061F08091E80083FD0AC0809127
:102F0000E80082FFF2CF80E0089582E0089583E038
:102F1000089581E00895982F973068F59093E9001F
:102F2000981739F07091EC002091ED005091F0006D
:102F300003C0242F762F50E021FD02C09F5FECCF0D
:102F40003091EB003E7F3093EB003091ED003D7F00
:102F50003093ED003091EB0031603093EB007093D3
:102F6000EC002093ED005093F0002091EE0027FD3F
:102F7000E5CF80E008958F708093E90081E00895A7
:102F800080916B0287FF11C08091E80082FD05C02F
:102F900080916A028111F8CF11C08091E8008B778F
:102FA0000BC080916A02882349F08091E80080FF7D
:102FB000F8CF8091E8008E778093E8000895209103
:102FC000E4003091E50095E64091EC00842F81709B
:102FD00040FF23C08091E80080FD1DC080916A02FF
:102FE000882399F0853099F08091EB0085FD11C020
:102FF0004091E4005091E5002417350729F39150E2
:1030000011F09A01E1CF84E0089582E0089583E011
:10301000089581E0089580E008954091E80042FF1E
:10302000DDCF08950E9480180E948818E0EEF0E03D
:10303000808181608083E8EDF0E080818F778083FC
:1030400019BCA7EDB0E08C918E7F8C9380818F7E30
:1030500080831092690208950F931F93CF93DF939B
:103060000E9480180E948818C8EDD0E088818F7770
:10307000888388818068888388818F7D888319BC54
:1030800010926A0210926602109268021092670211
:1030900000EE10E0F80180818B7F80838881816061
:1030A000888342E060E080E00E948B17E1EEF0E070
:1030B00080818E7F8083E2EEF0E08081816080837A
:1030C000808188608083F80180818E7F8083888101
:1030D00080618883DF91CF911F910F910895E8ED72
:1030E000F0E080818F7E8083E7EDF0E08081816079
:1030F000808384E082BF81E0809369020C942C1865
:10310000E8EDF0E080818E7F80831092E2000895E8
:103110001092DA001092E10008951F920F920FB6FC
:103120000F9211242F933F934F935F936F937F934D
:103130008F939F93AF93BF93EF93FF938091E100A1
:1031400082FF0BC08091E20082FF07C08091E10006
:103150008B7F8093E1000E94031B8091DA0080FF47
:103160001FC08091D80080FF1BC08091DA008E7F45
:103170008093DA008091D90080FF0DC080E189BD85
:1031800082E189BD09B400FEFDCF81E080936A022F
:103190000E94EB1405C019BC10926A020E94F91437
:1031A0008091E10080FF19C08091E20080FF15C08E
:1031B0008091E2008E7F8093E2008091E200806146
:1031C0008093E2008091D80080628093D80019BC7F
:1031D00085E080936A020E94FD148091E10084FFE3
:1031E00030C08091E20084FF2CC080E189BD82E183
:1031F00089BD09B400FEFDCF8091D8008F7D8093FA
:10320000D8008091E1008F7E8093E1008091E20000
:103210008F7E8093E2008091E20081608093E200E3
:1032200080916602882311F084E007C08091E3005A
:1032300087FD02C081E001C083E080936A020E94A2
:10324000FE148091E10083FF29C08091E20083FF9A
:1032500025C08091E100877F8093E10082E0809328
:103260006A02109266028091E1008E7F8093E100F5
:103270008091E2008E7F8093E2008091E200806185
:103280008093E20042E060E080E00E948B17809132
:10329000F00088608093F0000E94FC14FF91EF9191
:1032A000BF91AF919F918F917F916F915F914F915E
:1032B0003F912F910F900FBE0F901F9018951F9266
:1032C0000F920FB60F9211242F933F934F935F935A
:1032D0006F937F938F939F93AF93BF93CF93DF931E
:1032E000EF93FF93C091E900CF708091EC00D82F4D
:1032F000D17080FDD0E81092E9008091F000877FC6
:103300008093F00078940E94A3191092E9008091B4
:10331000F00088608093F000CD2BCF70C093E9005F
:10332000FF91EF91DF91CF91BF91AF919F918F91DD
:103330007F916F915F914F913F912F910F900FBEB1
:103340000F901F9018951F93CF93DF93CDB7DEB7E3
:10335000AA970FB6F894DEBF0FBECDBFEBE6F2E042
:103360008091F100819322E0E337F207C9F70E94D0
:103370000A158091E80083FF2EC180916B02909125
:103380006C02492F50E04A30510508F024C1FA017F
:10339000EC58FF4F0C941F1B803821F0823809F045
:1033A0001AC108C08091670290916802992389F040
:1033B00082600FC080916F028F70873008F00BC160
:1033C0008093E9008091EB0085FB882780F91092BB
:1033D000E9009091E800977F9093E8008093F100D6
:1033E0001092F100D1C0282F2D7F09F0F4C088235E
:1033F00019F0823061F0EFC080916D02813009F0E8
:10340000EAC0933009F080E0809368022EC080917A
:103410006D0281112AC080916F028F702FEF280FEB
:10342000263008F0D8C08093E9002091EB0020FFFF
:103430001CC0933021F48091EB00806214C0909105
:10344000EB0090619093EB0021E030E0A90102C015
:10345000440F551F8A95E2F74093EA001092EA0064
:103460008091EB0088608093EB001092E9008091DE
:10347000E800877F8093E8000E94C017ACC08111EC
:10348000AAC010916D021F778091E3008078812B94
:103490008093E3008091E800877F8093E8000E949A
:1034A000C0178091E80080FFFCCF8091E300806826
:1034B0008093E300111102C082E001C083E0809399
:1034C0006A0289C08058823008F085C080916D0200
:1034D00090916E028C3D53E0950779F583E08A83E5
:1034E0008AE289834FB7F894DE01139620E03EE02C
:1034F00051E2E32FF0E050935700E49120FF03C026
:10350000E295EF703F5FEF708E2F90E0EA3010F0A1
:10351000C79601C0C0968D939D932F5F243149F7C4
:103520004FBF8091E800877F8093E8006AE270E0F7
:10353000CE0101960E94CC1616C060916F02709168
:103540007002AE014F5F5F4F0E940A16BC01892BCB
:1035500009F441C09091E800977F9093E800898139
:103560009A810E942A178091E8008B778093E80067
:1035700032C0803881F58091E800877F8093E80031
:10358000809166028093F1008091E8008E7772CF7F
:10359000811121C080916D0290916E02992702974E
:1035A000D4F48091E800877F8093E80080916D02D9
:1035B000809366020E94C01780916602811106C046
:1035C0008091E30087FD02C081E001C084E0809328
:1035D0006A020E9400158091E80083FF0AC0809172
:1035E000E800877F8093E8008091EB008062809301
:1035F000EB00AA960FB6F894DEBF0FBECDBFDF91E9
:10360000CF911F9108950895CF9380916A028823E6
:10361000A1F0C091E900CF709091EC00892F8170EA
:1036200090FD80E8C82B1092E9008091E80083FDAE
:103630000E94A319CF70C093E900CF910895EE0FB7
:10364000FF1F0590F491E02D0994F999FECF92BDEA
:1036500081BDF89A992780B50895A8E1B0E042E0CD
:1036600050E00C94591B262FF999FECF92BD81BDD5
:10367000F89A019700B4021639F01FBA20BD0FB6B0
:10368000F894FA9AF99A0FBE08950396272F0E948C
:10369000341B0E94331B252F0E94341B242F0C94B3
:1036A000341B0196272F0E94341B0C94331BDC0122
:1036B000CB01FC01F999FECF06C0F2BDE1BDF89A3D
:1036C000319600B40D9241505040B8F70895F894E7
:0236D000FFCF2A
:1036D200F5016B14AA146E14A614A21401E200E9F7
:1036E20000EA00B500B600B700CD008301CC008A25
:1036F20001920194012102230224022502260227BB
:10370200022A02B300B4006F007000818283939298
:103712009190946697C6343536323331F7F6F5F424
:10372200E200E900EA00B500B600B700CD0083016F
:10373200CC008A0192019401210223022402250273
:10374200260227022A02B300B4006F0070008182B1
:023752008300F2
:00000001FF
